:020000040800F2
:1000000058450220554F0008954F0008A54F00089D
:10001000B54F0008C54F0008D54F0008000000008C
:10002000000000000000000000000000954F0008E4
:10003000954F000800000000954F0008CD450008CE
:10004000954F0008954F0008954F0008954F000800
:10005000954F0008954F0008954F0008954F0008F0
:10006000954F0008954F0008954F0008954F0008E0
:10007000954F0008954F0008954F0008954F0008D0
:10008000954F0008954F0008954F0008954F0008C0
:10009000954F0008954F0008954F0008954F0008B0
:1000A000954F0008954F0008954F0008954F0008A0
:1000B000954F0008954F0008954F0008954F000890
:1000C000954F0008954F0008954F0008954F000880
:1000D000954F0008B5020008954F0008954F00089D
:1000E000294F0008954F0008954F0008954F0008CC
:1000F000954F0008954F0008954F0008954F000850
:10010000954F00085512030819C10208954F0008C1
:10011000954F0008954F0008954F0008954F00082F
:10012000954F0008954F0008954F00085912030895
:10013000954F0008954F0008954F0008954F00080F
:10014000954F0008954F0008954F0008954F0008FF
:10015000954F0008954F0008954F0008954F0008EF
:10016000954F0008954F0008954F0008954F0008DF
:10017000954F000851C10208954F0008954F00089F
:10018000954F0008954F0008954F0008954F0008BF
:10019000954F0008954F0008954F0008954F0008AF
:1001A000D1440008954F0008954F000800B5012183
:1001B00083B008462AF092F84FF4407201230448B5
:1001C0006946CDE9003229F0BFF903B05DF804FBC0
:1001D0000000024008B50121034829F017FA003851
:1001E00018BF012008BD00BF0000024010B501216A
:1001F00088B0254C08462AF071F8012110202AF019
:100200009DF820460722092129F024FA20460722DA
:100210000A2129F01FFA1D4A4FF4007302A9204653
:10022000CDE9023229F090F94FF4806302A920460B
:10023000A4F57044029329F087F9204601212BF0A0
:10024000DBFC4FF4E13000234FF4402204A904907A
:1002500020460692ADF81C3005932BF031FC4FF48C
:10026000A06028F0CBF80A4B019301A828F0D0F841
:100270000122204640F225512BF080FD012120462D
:100280002BF0A2FC08B010BD0000024002030001E8
:100290002500000110B50446054880212BF088FD9B
:1002A0000028F9D021460248BDE810402BF0C0BC20
:1002B0000010014008B5074840F225512BF082FD9F
:1002C000012800D008BD03482BF0B6FC024B187083
:1002D00008BD00BF0010014058A901200000000027
:1002E0002DE9F041069D4FF0000CA3F800C0A5F8E1
:1002F00000C00478002C59D08646604615E0CE78C0
:100300008F784C78644434441FFA84FCA3F800C00E
:100310002C880130BC4280B238BF2F801EF80040CC
:1003200038BFB3F800C0002C42D00A2C40D00AB12C
:10033000202C3DD00E79002EE1D1FC2C1BD8D52CE1
:100340002ED9A4F1D606262E15D8DFE806F02714FC
:100350001414141425141423141414143C14141415
:1003600014141414141414141414141414143A1427
:10037000141414142100203C01EB4404E4880C44C0
:1003800094F8DA7094F8D88094F8D9604744B8E7C4
:100390006224F1E76624EFE76524EDE76424EBE7E8
:1003A000A72C0CD0C42CE6D16324E5E7A446204654
:1003B0004A78ACEB020CA3F800C0BDE8F0816724DA
:1003C000DAE76124D8E76024D6E700BF10B40A4C0E
:1003D0000023224602E001331E2B09D052F8041BF1
:1003E0000029F8D144F8230001205DF8044B704740
:1003F00000205DF8044B70475CA9012010B40B4C41
:100400000023224602E001331E2B0AD052F8041BBF
:100410008142F8D1002244F8232001205DF8044BEA
:10042000704700205DF8044B704700BF5CA90120B5
:1004300002487822002135F04FBC00BF5CA90120A2
:1004400003F0B8BF10B58AB0044628F0EDF968464D
:1004500028F056FA144BE10AC4F345129FED107BC5
:100460001B68CDE90321FF22CDE9052300214FF4CC
:10047000A072F023684604F01F048DED007BCDE9E7
:1004800007120993029428F0DDF928F045FA0220BA
:1004900028F030FB0028FAD00AB010BDAFF300807E
:1004A0000000030002000000D8A901204FF6FF70F1
:1004B000FFF7C8BF2DE9F0430579A3B00C46002D26
:1004C0006DD0012D68D18B88002B65D0CA88002A99
:1004D00062D009880588CE18AE425DDC6688B0F827
:1004E00002C006EB020EE64556DC27893B44F02BA2
:1004F00052DC63891A44B2F5A07F4DDCC3EB0313D1
:1005000007EB0317524B82681B6806FB051102EBD1
:10051000810803EB470728F087F9684628F0F0F9CF
:10052000A3880993C3F1F0030793E38808934FF07E
:1005300002094FF4003300220026CDE90039684655
:100540000023CDE90423CDE90266069728F07AF965
:100550000AA828F037FAA388CDF82880ED1A0AA84F
:10056000CDE90F660C960B9528F0F4F916A828F043
:100570006FFAA388CDF86090C3F1F00316A8CDE917
:100580001673CDE91B6628F02BFA28F0C5F9022076
:1005900028F0B0FA0028FAD023B0BDE8F0838B88A9
:1005A000002BF9D0CA88002AF6D00988068801EB0A
:1005B000030CB445F0DCB4F802C0B0F802E00CEB78
:1005C00002077745E8DC27893B44F02BE4DC6389AC
:1005D0001A44B2F5A07FDFDCC3EB031307EB03176C
:1005E0001B4B82681B680CFB061102EB410803EBF6
:1005F000470728F019F90AA828F082F9A38813936D
:10060000C3F1F0031193E388109700220AA8129314
:1006100002270023CDE90E23CDE90C550A950B974F
:1006200028F010F916A828F0CDF9A388CDF8588045
:10063000F61A16A8CDE91767CDE91B5528F08AF9F7
:1006400028F06AF9022028F055FA0028FAD0A3E72A
:10065000D8A9012038B50B4C04F1780501E0AC4273
:100660000FD054F8041F0029F9D00B7D002BF6D0D1
:100670000B78002BF3D148680831FFF71BFFAC4221
:10068000EFD138BD58A90120F0B5ADF50D7D064676
:100690000D460122014603A831F064FF00283FD136
:1006A00002AB02220DF1060103A8069C32F044F8C9
:1006B000074600287BD1BDF806304DF6FF02934275
:1006C00036D02B80022202AB0DF1060103A832F0D6
:1006D00033F8BDF806306B80022202AB0DF1060143
:1006E00003A832F029F8BDF806302B7102220DF173
:1006F000060102AB083C03A832F01EF820463DF08C
:100700005FFA02AB01460746224603A832F014F80E
:1007100003A832F077F90120AF600DF50D7DF0BD33
:10072000274831463EF050FA00200DF50D7DF0BD12
:10073000014603A832F074F92F7120463DF040FACB
:1007400002AB01460646224603A831F0F5FF03A896
:1007500032F058F944B304F1FF3C731EB44401E095
:100760009C4521D0194613F8012FFF2AF8D15A7859
:10077000C02AF5D10B7A487A8A7940EA0320CB79EE
:10078000288043EA02236B8003FB00F040003DF029
:1007900017FA0023014607461A46304601F046FE86
:1007A00030463DF015FAB6E728886B88ECE731460D
:1007B00004483EF009FA03A832F024F9B4E700BF78
:1007C0002C2304080C23040810B5044680683DF06F
:1007D000FFF90023A36010BD2DE9F04F2DED028B32
:1007E00003468DB010EE100A98460E46154634F0BA
:1007F00077FC41EC180BB0EE480AF0EE680A33F0D3
:10080000DBFF5A4B002251EC100B34F0C1FC34F0EA
:1008100059FFB0EE480AF0EE680A04B233F00CF863
:10082000524B002251EC100B34F0B2FC34F04AFF72
:10083000B6F902B0B8F90020CDF82C8007B20BEB66
:10084000DB704010B8F9021008900B98B6F9003030
:10085000019202EBD272008806914FEA6208BBF166
:10086000000F01EBD1724FEA6201B6F800A00590CB
:1008700003EBD3726DDD5210524204FB02F007FB12
:1008800002F20A9009924FF0000E002B66DD8BB247
:10089000D6F80890364A02931FFA88F8CDF81CB0B3
:1008A000F446089B0095ACEB03010A9B0CFB0AF095
:1008B00001FB04F607FB0131099B0AEB000ECDE9B1
:1008C00003ACF61A80004FEA8E0E23E0019D6545C9
:1008D00082FB06BA2ADD029D4FEAE67CCCEBAA1C1D
:1008E000AC440FFA8CFABAF1000F1FFA8CFC1DDD34
:1008F000059D05FB0C3C069B534517DD0B9B9B6838
:1009000053F82C3049F80030043086452144A6EBDA
:10091000070614D082FB013CCB17C3EBAC13434456
:100920000FFA83FCBCF1000F9BB2CFDC009B49F8AF
:100930000030043086452144A6EB0706EAD1DDE904
:1009400003AC0CF101030FFA83FC079B009D634588
:10095000A7DC0DB0BDEC028BBDE8F08F0EF1010EEF
:100960000FFA8EFEF34590DCF3E700BF00408F40A6
:10097000D34D62102DE9F0474768B7F800907C88A6
:100980003B79804604FB09FACBB3012B08BF042353
:1009900040D103FB0AFA50463DF012F90646BCB3BB
:1009A000B868A0F1040E22464FEA89010EEB890EC9
:1009B000A500B9F1000F0AD0AEEB010C06EB8203E3
:1009C0005CF8044F43F8044CF4452B44F8D1013A49
:1009D0008E44EED1524631463DF002F930463DF0AC
:1009E000F7F879883A88002361F30F0362F31F4315
:1009F0003B60A8F80C10A8F80E20BDE8F087022391
:100A000003FB0AFA50463DF0DBF80646002CC7D13E
:100A1000B868DFE7014803F0E1FD00BF44230408A4
:100A200070B542880588037904460E4602FB05F539
:100A3000B3B1012B08BF042314D1B06803FB05F543
:100A400008B13DF0C5F828463DF0BAF8B060A1689D
:100A50002A463DF0C5F8236833602379337170BDB1
:100A60000223EAE7014803F0B9FD00BF442304086C
:100A700010B5047944B1012C0DD10488806802FBC3
:100A8000041140F8213010BD0488806802FB041175
:100A900020F8113010BD014803F0A0FD44230408E4
:100AA00008B503794BB1012B0FD1B0F800C08368B2
:100AB00002FB0C1153F8210008BDB0F800C0836898
:100AC00002FB0C1133F8110008BD014803F086FD4C
:100AD000442304082DE9F04F8FB0FC28189C0492A1
:100AE0008B4636D8D5282DD9A0F1D602262A00F279
:100AF0008D81DFE812F096018B018B018B018B0158
:100B00008B019C018B018B01A2018B018B018B015D
:100B10008B01B0018B018B018B018B018B018B0150
:100B20008B018B018B018B018B018B018B018B0165
:100B30008B018B018B01AE018B018B018B018B0132
:100B40008B01A801A72800F06681C42840F05E81CF
:100B500083202279002A40F0C38004EB400030F863
:100B60003A2CA118019191F8D97091F8D82091F8F8
:100B7000DA100091002F00F03F811A4493B20293E3
:100B8000049B3B449EB2199BC3F307430A93199BF2
:100B9000C3F307230B93199BC3F3C4230893199B37
:100BA000CDE90C67C3F3451309934FF0030A4FF0E7
:100BB0000109009B002B00F0168100264D467EE0C7
:100BC000534493F8D89009F0F009B9F1F00F6ED0C2
:100BD000BBF80070049B16FB0734A4B2B9F1000FF8
:100BE00000F0C280029A21465846FFF759FF9BF851
:100BF00004C089F0FF08BCF1000F00F0CB80BCF10D
:100C0000010F40F02A81199AD2B20592C0F307224F
:100C100003920B9A0792C9EB10630A9A0692C0F3EB
:100C200007415FFA80FEDBB2000E029A07FB024921
:100C30008B4A08FB00F4A2FB0447069A11FB00F460
:100C4000C7F3CF1702FB0844039A17FB01F1641A9C
:100C500012FB00F1079A02FB0811059A1EFB00F037
:100C600002FB0800039A013BDB1B17FB02F217FB98
:100C70000EF78A1AC01BBCF1010FDBB2A4B292B20C
:100C800080B2DBF80810B4FBF3F4B2FBF3F2B0FB74
:100C9000F3F000F09180C2F38502C4F3C404520162
:100CA00042EAC422C0F3C400024321F81920009A8A
:100CB0000136B3B29A4285F0010540F29380019B60
:100CC000002D7FF47DAF03EB0A020AF1010392F8D5
:100CD000D8904FEA09191FFA83FA5FFA89F974E785
:100CE00094F802E0E778BEF1000F00F08580A0F1F3
:100CF000200C0EFB0C4C0CF1D70C00261CF8014FFD
:100D0000002F7DD0049DDDF86480009300228021B7
:100D100005E0013290B287424FEA51011DD92142CC
:100D2000F7D0BBF800909BF804A019FB06501044C4
:100D300080B2BAF1000F25D0BAF1010F40F08D80DA
:100D4000009B09FB0300DBF80830013243F82080E8
:100D500090B287424FEA5101E1D80136B6B2B645AA
:100D60004AD01CF8014FD1E79BF804308BB3012B1C
:100D700073D1029B199A07FB0344DBF8083043F850
:100D8000242094E7009B09FB0300DBF8083023F8DC
:100D90001080BEE7199B099A079203F01F03089A77
:100DA0000593C0F34513C0F3C421039300F01F0E55
:100DB00043460692FF2038E7C0B2240440EA0360AD
:100DC00004F47F041202044392B2144341F8294010
:100DD0006DE7029B199A07FB0344DBF8083023F800
:100DE000142064E7A946049B0C9A01339BB29A42F3
:100DF00004937FF4DEAE0D9F38460FB0BDE8F08F50
:100E00000136B6B276457FF479AFF5E71F2898BF73
:100E10000027F1D99DE622798720002A3FF49DAE74
:100E20005EE722798420002A3FF497AE58E72279C2
:100E30008520002A3FF491AE52E722798620002ACD
:100E40003FF48BAE4CE722798220002A3FF485AE36
:100E500046E781207DE680207BE6024803F0BEFB6A
:100E6000818080804423040810B59E46137982B0A7
:100E7000A3B1D478049BCDE90023BEF804C0BEF82A
:100E80000820BEF80A30ACEB040C0CEBDC7C02EB67
:100E90006C0292B2FFF71EFE02B010BDFC281BD8F8
:100EA000D5282AD9A0F1D603262B15D8DFE803F0E0
:100EB0002314141414142114141F141414142F14B0
:100EC00014141414141414141414141414141414E2
:100ED0002D14141414141D00A0F1200302EB43037D
:100EE000DB88134493F8D940C4E76223F6E766230E
:100EF000F4E76523F2E76423F0E7A72803D0C428CA
:100F0000EAD16323EAE76723E8E76123E6E76023A2
:100F1000E4E700BF2DE9F04F85B080460078BDF8CA
:100F200038409946BDF83C3002930E46109900288F
:100F300037D096F804A003912346934654464D4675
:100F400000279A4684B3F27896F802C0BBF800E016
:100F50002A44724503DC029B43B19A4206DD357890
:100F6000B2782A4452441FFA82FA4D460A284FD0DA
:100F70000D2810D0BBF80220D444944558DC039BC4
:100F80002A46CDE9006359465346FFF7A3FD727820
:100F900002442A4495B20137BFB218F8070000286E
:100FA000D0D105B0BDE8F08FFC281BD8D52837D9A3
:100FB000A0F1D602262A15D8DFE802F0281414146E
:100FC000141426141424141414144414141414148F
:100FD00014141414141414141414141442141414A3
:100FE00014142200A0F1200206EB4202D2883244FF
:100FF00092F8DAC092F8D8E092F8D920F444A5E744
:101000006222F1E76622EFE76522EDE76422EBE773
:10101000B2783078024452444D461FFA82FABAE759
:10102000A72803D0C428DDD16322DDE76722DBE7F0
:1010300005486346414605B0BDE8F04F3DF0C4BDEC
:101040006122D1E76022CFE75C2304082DE9F04F4D
:101050008BB09C460378BDF85050BDF854E09146E3
:10106000169A0692D3B12A46834664460027CDF8E5
:101070000CC00D46CDF81CE090460A2B11D12B7800
:10108000AA78039C0137BFB21A4442441BF80730C8
:101090001FFA82F80BEB0700002BEED10BB0BDE876
:1010A000F08F0DF126030093012209AB2946FFF7CB
:1010B00017F9BDF82430B9F800202344934203DC2B
:1010C000079A42B1934206DDAB782A78039C134419
:1010D00043441FFA83F8BDF82630B9F80220434490
:1010E000934239DCD0B10BEB0706CDE9047B069FB8
:1010F00006EB000A8346CDE90057434616F8010B7C
:1011000022464946FFF7E6FC6B7803442344B24588
:101110009CB2F0D15846049FDDF814B0384487B231
:101120000BEB07001BF80730202BB5D1069A1846A9
:10113000CDE90052434622464946FFF7CBFC6B7887
:101140000137BFB2034423449CB21BF807300BEBBA
:101150000700002B91D1A1E7034859460BB0BDE829
:10116000F04F3DF031BD00BF5C23040870B586B080
:101170001E460DF1160314460093002205AB0546EA
:10118000FFF7AEF80A9B02930023CDE900632246E5
:101190002388BDF814401B1B03EBD3732846C3F30D
:1011A0004F03FFF753FF06B070BD00BF2DE9F04FAE
:1011B0001E4603888BB0044688199842BDF85080BB
:1011C000159F38DC608808EB0205854233DC207906
:1011D000A0B301283DD1C7F3074BC7F3072A5FFA35
:1011E00087F904203F0E02FB0311A36800FB0135C1
:1011F00027F01AFB684627F083FB4FF44033009337
:10120000237923B3012B24D1002301932388CDF824
:1012100008909B1B6846CDE90653CDE903ABCDE9A9
:101220000886059727F00EFB27F076FB022027F0B3
:1012300061FC0028FAD00BB0BDE8F08FC7F3C42BD7
:10124000C7F3451A07F01F090220FF27CBE7022347
:10125000DBE7014803F0C2F9442304082DE9F04715
:10126000BDF820E0099F724591469C4602D873461E
:1012700099469646614533D9A9EB0E06A1EB0C05BC
:10128000B6B2ADB2002E72D00279002A3AD0012A4D
:1012900078D10488D0F8088004FB0EC3AE4248F829
:1012A000237039D973467108AEEB090E00E004884B
:1012B000294489B28E4205D871440CF1010C89B2DF
:1012C0001FFA8CFC01339BB204FB03C4012A14BF38
:1012D00028F8147048F824709945E8D1BDE8F087E3
:1012E000ACEB0105ADB2002D39D109F10103A3EB3F
:1012F0000E039BB2CDE9083772460123BDE8F047E3
:10130000FFF754BF0388D0F808800EFB03C3AE423A
:1013100028F813700488C5D80CEB05091FFA89F961
:10132000ACEB01016B0800E0048833449BB2AB4294
:1013300005D30B440EF1010E9BB21FFA8EFE0CF189
:10134000010C1FFA8CFC04FB0EC4012A14BF28F800
:10135000147048F82470CC45E6D1BDE8F087A9EBBD
:101360000E066346B6B28C461946002E8CD16B1C15
:1013700001220892099772469BB2BDE8F047614688
:10138000FFF714BF014803F029F900BF4423040804
:101390002DE9F04F93880788B1F80080A3B0002BA7
:1013A00000F087801446D288002A00F082800E4622
:1013B00021880546C818B8427BDC6088B5F802C0B1
:1013C00000EB020EE64574DCB4F808C06344434504
:1013D0006FDCB4F80AE0738872449A4269DC2B79B6
:1013E00033B1012B08BF042203D0374803F0F6F8CD
:1013F0000222AB6800FB071102FB01393379002B95
:101400005CD0012BF1D10422B3680EFB08CC02FBA7
:101410000C3A27F009FA684627F072FA4FF40033C5
:1014200000933379002B47D0012BDED100230193A9
:10143000A3880993A8EB0303684607934FF0000BBA
:10144000E3880893CDE902BBCDE904BBCDF818A031
:1014500027F0F8F90AA827F0B5FAA2882B79CDF879
:101460002890BF1A0B976BB3012BBED15B460AA81D
:1014700000250C93CDE90F5527F06CFA16A827F03C
:10148000E7FAA3883279CDF858A0A8EB03031793A5
:10149000B2B1012AA9D1002316A8CDE91B331895B2
:1014A00027F09EFA27F038FA022027F023FB0028C5
:1014B000FAD023B0BDE8F08F0223B8E70222A3E7F9
:1014C0000225E8E70223D2E74423040810B5448844
:1014D000038882B00022CDE900411146FFF766FE85
:1014E00002B010BD70B51646428082B004460D466B
:1014F0000180037102FB01F29BB1012B08BF0420A4
:1015000011D102FB00F03CF05BFB069BA0600022C7
:10151000CDE9006311462B462046FFF747FE02B097
:1015200070BD0220EDE7014803F058F84423040899
:101530000023036110B40C6803700122C0E9023477
:1015400041605DF8044B0275704700BF0023836063
:101550000A6842600360704730B5012187B04FF4DC
:10156000000028F0DFFE0121234D244C084628F01E
:10157000B5FE0121042028F0B1FE284604220821EE
:1015800028F068F820460422092128F063F81C4A54
:101590004FF4807328466946CDE9003227F0D4FF26
:1015A0004FF4007369462046009327F0CDFF0121D8
:1015B0004FF4000028F0F2FEA4F5D63400214FF4D9
:1015C000000028F0EBFE204628F058F80D480E4B9E
:1015D00002934FF08061CDE903014FF48042204631
:1015E0000121ADF8142028F0FFF802A9204628F0C8
:1015F0007BF807B030BD00BF000002400008024089
:10160000020201000000FFBFA08601002DE9F041A9
:1016100006460D465F48604CDFF888815D4F01212A
:1016200028F008F902E0013C00F09B804146384672
:1016300028F032FA0028F6D05648574CDFF854818B
:10164000564F002128F01CF952480022314628F05C
:101650000DF902E0013C00F088804E48394628F040
:101660001BFA0028F6D0B8F818304B4CDFF8308160
:10167000484F01E0013C7CD04146384628F00CFA46
:101680000028F7D029464348434C454F414DDFF8E9
:10169000288128F083F901E0013C48D039462846EA
:1016A00028F0FAF90028F7D04146284628F0F4F946
:1016B0000028F1D03748384C3A4F364D012128F0F8
:1016C000B9F801E0013C58D03946284628F0E4F941
:1016D0000028F7D031462F482F4C2E4E2F4D012297
:1016E00028F0C4F801E0013C4BD02A48294628F0F4
:1016F000D3F90028F7D0338B274C2B4E254D01E032
:10170000013C42D03146284628F0C6F90028F7D0DF
:101710000121204828F09CF81E4828F041F90121B9
:1017200004461C4828F0ACF82046BDE8F0811F4A6A
:101730001F4803213DF048FA1648012128F088F897
:101740001448012128F0D0F82146124828F0CCF89E
:101750000024FFF701FF17483DF008F82046BDE8D8
:10176000F081124A12482146E4E7104A104801214C
:10177000E0E70E4A0E480221DCE70C4A0C4804213F
:10178000D8E70A4A0A480521D4E7084A084806214A
:10179000D0E700BF005C0040010003000200001021
:1017A000800000100100001040000010889C040818
:1017B00094230408A8230408040000102DE9F8432A
:1017C00081460E464448454CDFF82C81424F0121AA
:1017D000154628F02FF801E0013C6DD0414638460F
:1017E00028F05AF90028F7D03B483C4CDFF8E88055
:1017F0003B4F0022494628F039F801E0013C5FD018
:101800003548394628F048F90028F7D0B8F818309C
:10181000324CDFF8D080304F01E0013C54D04146DB
:10182000384628F039F90028F7D031462A482B4CA1
:101830002C4F294E28F0B2F801E0013C48D039463F
:10184000304628F029F90028F7D029462248234CB1
:10185000244E214D244F28F0A1F801E0013C12D084
:101860003146284628F018F90028F7D0394628468E
:1018700028F012F90028F1D01748012127F0E8FFDD
:101880000120BDE8F883194A194804213DF09CF96C
:101890001148012127F0DCFF0F48012128F024F82E
:1018A00021460D4828F020F8FFF756FE11483CF07D
:1018B0005DFF0020BDE8F8830C4A0D482146E5E7AE
:1018C0000A4A0B480121E1E7084A09480221DDE7FD
:1018D000064A07480321D9E7005C004001000300E5
:1018E000020000108000001004000010989C040802
:1018F00094230408A8230408010000102DE9F047F0
:101900001D46002B00F0A580074688467548764C9A
:10191000DFF8E8A1DFF8CC910121164627F08AFF15
:1019200002E0013C00F0CA805146484628F0B4F875
:101930000028F6D0012D0CBF0021012169486A4C16
:10194000DFF8A0A1DFF8A49127F09AFF65480022F4
:10195000394627F08BFF02E0013C00F0B38061487C
:10196000494628F099F80028F6D0BAF818305E4CAD
:10197000DFF88CA1DFF86C9102E0013C00F0A6805A
:101980005146484628F088F80028F6D04146554888
:10199000554CDFF86C91DFF84C81DFF868A127F037
:1019A000FDFF01E0013C76D04946404628F074F83E
:1019B0000028F7D05146404628F06EF80028F1D0B4
:1019C0004848494CDFF83491DFF81881012127F0AD
:1019D00031FF01E0013C7DD04946404628F05CF8EB
:1019E0000028F7D039463F483F4CDFF8F8803F4F9A
:1019F000012227F03BFF01E0013C6FD03948394616
:101A000028F04AF80028F7D0B8F81830354FDFF83A
:101A1000F880013E4FF0000909F101095FFA89F9E8
:101A20004D452FD9304C01E0013C43D0414638466A
:101A300028F032F80028F7D0384627F0B1FF4D459E
:101A400006F8010FE8D12748012127F019FF0120EE
:101A500016E01946264A27483DF0B6F821480121EC
:101A600027F0F6FE01211F4827F03EFF29461D48BA
:101A700027F03AFFFFF770FD1F483CF077FE00208B
:101A8000BDE8F0873846002127F0FAFE01213846EC
:101A900027F0DEFEC6E7164A164804213DF094F80A
:101AA0001048012127F0D4FE01210E4827F01CFF29
:101AB0002146DCE70E4A0F480721EFE70C4A0D48A4
:101AC0000121EBE70A4A0B480221E7E7084A0948E7
:101AD0000321E3E7064A07480521DFE7044A0548F2
:101AE0000621DBE7005C004001000300020000105B
:101AF000A89C040894230408A823040801000010EB
:101B00008000001004000010400000102DE9F04794
:101B10001F46002B6ED082460E465248524CDFF8CC
:101B20005C91DFF840810121154627F083FE02E039
:101B3000013C00F087804946404627F0ADFF002871
:101B4000F6D04848484CDFF81C91DFF83481002279
:101B5000514627F08BFE01E0013C77D041484146D9
:101B600027F09AFF0028F7D0B9F818303E4CDFF87C
:101B7000FC90DFF8F08001E0013C6BD04946404624
:101B800027F08AFF0028F7D031463648364CDFF878
:101B9000DC80344E27F002FF01E0013C5ED041467C
:101BA000304627F079FF0028F7D0A9462F4E2D4D5B
:101BB000DFF8D0804F4499F800102B4C284627F0CE
:101BC000EDFE01E0013C2ED03146284627F064FFAF
:101BD0000028F7D04146284627F05EFF0028F1D0C4
:101BE00009F10109B945E6D11E48012127F030FE6F
:101BF000012016E019461E4A1E483CF0E5FF194830
:101C0000012127F025FE0121164827F06DFE3946F7
:101C1000144827F069FEFFF79FFC17483CF0A6FD2B
:101C20000020BDE8F087124A124805213CF0CCFFA5
:101C30000C48012127F00CFE01210A4827F054FE30
:101C40002146E5E70A4A0B480121EFE7084A09481F
:101C50000221EBE7064A07480321E7E7044A054863
:101C60000421E3E7005C0040010003008000001055
:101C7000B89C040894230408A82304080100001059
:101C800002000010040000102DE9F04F012885B07B
:101C900060D00228354C51D1B4F92610B4F9243063
:101CA000334AB4F91A80334D0B44B4F9181002EBDF
:101CB000C312B8F1000F3EDD4B1E9BB20133DB01B6
:101CC0000020002942DD01314FEAC119474649464B
:101CD000C600CDE9016702F1800802EB01094FF06F
:101CE000000E039092461F46019BA8F1800CACF1B8
:101CF00002060020B4F9102036F902BF03FB02E20D
:101D000000EBC2020130082825F812B0F2D10CF124
:101D1000100CC44503F10103E9D10CF18008C14561
:101D20000EF1010EE0D103983B46029F013052466E
:101D300087421A44CCD105B0BDE8F08F0C4AB4F903
:101D40001010B4F9128002F28A55B2E701308045D2
:101D5000B7D1F0E7054C064AB4F92430B4F91410B1
:101D6000B4F91680044D02EBC312A2E788F10020FB
:101D70005C020120E60B0120E60901202DE9F04F6D
:101D80000128854BCFB0024600F01482022840F0B3
:101D9000F981B3F92610B3F92400804C084403F606
:101DA000D43505EBC01AB3F91810B3F91A5004EB87
:101DB000C0100790002D40F3E2817948D0F86C0CF8
:101DC0000646D3F8C4010990D3F8C001D3F8C8314E
:101DD0000A9308900023002940F3E6810D955446AC
:101DE000B346154603FB01F003FB01164FEAC01C86
:101DF000F200C000A0460B9104460C93E246104648
:101E0000012D00F0CD81022D00F0C681DDF820E02B
:101E10008027DFF89CC10DF13809ACF1200249465A
:101E200052F8043B1BB208EB43063EF8133036F879
:101E30000A60624516FB03F341F8043BF0D1594BAD
:101E400002F1200C9C4509F12009E6D14EAACDE90A
:101E5000018BCDF80CA0CDE904400EAB924606975D
:101E6000AB462AE006EB0802D519A8EB0606D21B02
:101E700006EB0E07A6EB0E0604EB050E2D1B4FEA34
:101E80002E241C6007EB2C2424125C60A7EB2C276B
:101E900006EB2024A6EB20268818521A2D123F129A
:101EA0002412361200121212DD619F619C605E6185
:101EB000C3E90302203353455CD0D3E90145D86917
:101EC000D3F818E0D3F81090211840F235264EEAE6
:101ED000050206FB01F140F6E406224306FB04146A
:101EE000314E024306FB00115869DE68024332435B
:101EF0008719009240F6681202FB07F7A2F68742A4
:101F000002FB00706FF47B6202FB0677261A40F238
:101F100054420444C81B39440EEB050702FB07F783
:101F2000224A02FB0E7E4FF4C46206EB000C02FB59
:101F30000577301AB52505FB0CFC05FB00F0009A6F
:101F40001D6852EAC9224FEAC5280CF1800C00F145
:101F5000800008F180084FEAC92683D1ED00C3E96B
:101F60000055C3E90255C3E90455C3E906552033BA
:101F70005345A2D1DDE903A4DDE905075D4615AAB5
:101F8000DDF808B0CDF808A0CDE90340CDE905752E
:101F90000DAB924650E000BF88F100205C020120AA
:101FA00088110120A8280508B2F2FFFF38F1FFFFD1
:101FB000A827050806EB0E00AEEB060600EBE50EC3
:101FC000A0EBE50006EBEC05A6EBEC0601EB0E0C36
:101FD0004FEAAC3CAEEB010E4FEAAE3E5BF82C1084
:101FE00019605BF82E10C3F8E01005EB2721891368
:101FF000A5EB2725AD135BF8211019625BF82510BE
:10200000C3F8C01006EB24218913A6EB2426B613CF
:102010005BF8211019645BF82610C3F8A0101118A2
:10202000801A8A1380135BF822201A6653455BF8E6
:102030002020C3F8802074D0D3F8C460596C654F59
:102040005C6AD3F864E0D3F88490751840F2544287
:1020500002FB05F50435D3F8E42046EA010007FB4E
:10206000065C4FF4C466A71806FB015540F2352103
:1020700001FB07F7043740F6E401204301FB047439
:10208000554901FB0277D3F8A41053F8048F10438D
:10209000084340EA0E0001EB0E02009040F6681083
:1020A00000FB02F20432A0F6874000FB01216FF42E
:1020B0007B6000FB0E22C910D210C1EBE40E009829
:1020C00001EBE401C2EBE704B52602EBE7020EEBFD
:1020D0000407AEEB040406FB07F706FB04F44FEA23
:1020E000082E50EA092007F1800704F180040EF55C
:1020F000005E4FEA09267FF45DAF08F120084FEA41
:10210000A81853455BF82820C3F8E020C3F8C02086
:10211000C3F8A020C3F880201A661A641A621A60F5
:102120008AD1DDE9018A079BDDE90340DDE9057518
:1021300003EB0A0E16AE4FF0000CA6F1200271461A
:1021400052F8043B3B44964221F8023BF8D10CF193
:10215000080CBCF1400F0EF1100E06F12006ECD178
:10216000083484420AF1800A7FF44AAE0C9B0D9A2F
:102170000B9901331BB29A4244463FF733AE4FB03E
:10218000BDE8F08F03F6D43A0AF5A060B3F9101059
:10219000B3F9125007900DE6DDF828E0002738E685
:1021A000DDF824E0002734E601331BB29D423FF7FF
:1021B00012AEE4E7B3F92400084CB3F9141003F6A7
:1021C000D43505EBC01A04EBC010B3F916500790D4
:1021D000F0E500BF38F1FFFFB2F2FFFF5C02012023
:1021E0007149B1F9CC3B002B2DE9F04153DD6F482B
:1021F000B1F9CE2B013B9BB218445FFA82FE90F8F6
:102200000001A1F8CC3B02404EFA03FE91F8BD510B
:10221000664EA1F8CE2B01EB451000F5137000249B
:10222000072714E0B1F9CE2B9CF80081A1F8CC3B34
:102230005FFA82FC4CFA03F302EA08020134102C24
:10224000A1F8CE2B03EB4E0E00F1020020D0B0F827
:102250000029724506DCB0F900301BB1B0F88038B7
:10226000734528DAB1F9CC2B531E9BB2002A06EB3A
:10227000030CD7DC0B6B5A1C0A631A78A1F8CC7BD1
:10228000FF2A04BF02330B63D30902F07F02D5E7B4
:102290000320BDE8F0810B6B5A1C0A631A78FF2AF1
:1022A00004BF02330B63072322FA03FEA1F8CC3BE1
:1022B00002F07F02AAE704EB051301EB43032D02B2
:1022C000B3F8CC319B1A734415FA83F301EB430343
:1022D00093F8CC723B0917F00F07A1F8D03B1DD043
:1022E000B1F9CC3BB1F9CE0BBB421BDB2F4CDB1B56
:1022F0001BB2C2B21A41A1F8CC3B234493F800317F
:10230000184093B2A1F8CE0B781E0241D2B222B986
:102310004FF6FF72BA40534001331FB2A1F8D27B8F
:102320000020B6E7FB1ADDB2082D0E6B83B21FD971
:102330002A464FF0080C741C0C633078A1F8CE0BC1
:10234000083AFF28D2B20CBF0236264600EB032320
:10235000082AA1F8CCCB9BB2EDD8A5F10902C2F3B3
:10236000C402083DC2EB421205EBC20505F0FF05B1
:10237000721C0A630D4C3078C5F1080292B2144405
:10238000AB40A1F8CC2B40FA02F2FF2812FA83F3FB
:1023900094F8002108BF02369BB200EA020008BF91
:1023A0000E631A46AEE700BF88F1002088270508B3
:1023B00070B51D4D05F58053B5F8D22BA3F8D42583
:1023C00085F8BD0101240026FFF70AFFE8B9D5F81A
:1023D000D03BDBB1B5F9D02B002A21DD224491B2EC
:1023E00012B204F6E823013405EB430324B294420D
:1023F0009E80F6D14B1C02F6E82205EB42021CB28D
:10240000B5F8D21B91803F2CDEDD70BD04F6E823C9
:10241000013405EB430324B2402C9880F6D1F4E755
:10242000A1B22246E6E700BF88F100202DE9F04F77
:10243000DFF8A082044689B00E46174604F102096F
:1024400042F67042002140461D4633F045FCC8E983
:102450000B49C8F80070C8F80450CA4607969AF8A5
:1024600001200AF10207A2F1C003C8F83070202B46
:1024700022D8DFE813F0E901210021002100FA0051
:102480002100210021002100210021002100210044
:102490002100210021002100210021002100210034
:1024A00021002100210021004A0259003C002100A6
:1024B0002E0021002100260002F0F002D02A00F0B8
:1024C0005685BAF80230DBBA07EB030AC8F830A029
:1024D000C5E7BAF80220BAF80430D2BA07EB020A0C
:1024E000764AC8F830A05BBAA2F8683CB7E7BAF8F9
:1024F00002009AF80420C0BA02F00F0208EBC212E0
:102500004F280AF1050302F1320200F329840AF18F
:10251000450413F8011B22F8021FA342F9D107EB6F
:10252000000AC8F830A09AE7D146B8F9B41199F872
:102530000430B9F80200079E8B42BA46C0BA40F098
:10254000E48109B398F8B6514A4609EB41040AE020
:1025500088F8BB319379023203F00F0302339442BF
:1025600088F8BC3110D057799379AF424FEA1313F2
:10257000EED188F8B9319379023203F00F030233B8
:10258000944288F8BA31EED10AEB0003B8F9100092
:10259000C8F83030002800F0A583B8F91230002BBD
:1025A00000F0A083B8F914E0B8F91650444AB8F91D
:1025B0001840B8F91A7010FB03FCA8F824C01EFBE1
:1025C00005FCA8F826C093FBF5F590FBFEFC93FBF9
:1025D000F7F390FBF4F0A8F8223014FB07F402F2B2
:1025E0006C43C2F86C3CA8F82000A2F56673A8F80A
:1025F0001CC0A8F81E50A8F8284068326FF0FF00F1
:1026000043F8040F9A42FBD12E4A6FF0FF0342F8C1
:10261000043F0133B3F5807FF9D12B4B4FF40072A7
:1026200003F5806043F8042F9842FBD108F5B25BB4
:10263000224F0BF1120B97F85A36012B0BD1D8F819
:10264000302000230232C8F83020C7F85436A7F8EB
:102650005836C8F8CC3B012900F05E81032900F010
:1026600096821A483CF082F852E1BAF802309AF8A1
:102670000460DBBACF2B039300F39183330906F098
:102680000F0202EB43056C0104F24A2CC44401938F
:1026900002920AF105030AF11509624613F8011BBB
:1026A00022F8021F4B45F9D1094B4FEA052B03EBEA
:1026B000040A0BF2651B002610E000BF8801012010
:1026C00088110120F0110120F0190120D423040801
:1026D000F2F3002088F10020E24518D03CF9020F07
:1026E0000028F9D040F34C840BEB060208EB4202C1
:1026F00009EB000E4B4613F8011B22F8021F73452D
:10270000F9D180B281443044E24506B2E6D108EB0B
:102710000401B1F94C22002A40F03B842D011FFA3C
:1027200082F909F101010AB205EB020A08EB4A033A
:10273000B3F94C32002BF2D009F10206013B002A1A
:102740001FFA86FB9BB236B240F3448404F6CC20D9
:102750004A00404400210593049233F0BDFA04F688
:102760004C30049A0021404433F0B6FA0AF2A452E5
:1027700008EB420208EB4A0A059BAAF8CC3A002172
:102780000F2E91803FDCAA1908EB420308EB4201AF
:10279000B3F8CA3AB1F84C12013308EB42005B00BF
:1027A0009BB209F103090FFA89F9A0F84C3B013BF0
:1027B0000B44B9F1100FA0F8CC3A24D0DDE9011395
:1027C00003EB4103CBF10E008C4909EB031315FA1F
:1027D00080F005F2251231F813304A444844A1F63E
:1027E0007E0108EB420201EB400101335B009BB22A
:1027F000A2F8023932F8020F013803449BB2914229
:10280000A2F88038F1D1DDE901237D4903EB4203D1
:1028100008EB040208460021A2F8CC115B01024635
:102820001E3204F5E671C35E41441019B1F88020F0
:1028300013441BB221F8023F8842F7D1039B3B446B
:102840009A46C8F830300AE6BAF80530BAF80200FD
:102850005BBA9BB2C8F80C30BAF807305BBA9BB2CF
:10286000C8F808309AF80930A8F8B431012BC0BA7A
:1028700000F03C82032B48D19AF80A3088F8B63130
:102880009AF80B301B09A8F810309AF80B3003F0B7
:102890000F03A8F812309AF80C208023342413FB7D
:1028A00002424244C8F8C0219AF80D2088F8B721A6
:1028B0009AF80E201209A8F814209AF80E2002F0B7
:1028C0000F02A8F816209AF80F2013FB0242424488
:1028D000C8F8C4219AF8102088F8B8219AF8112075
:1028E0001209A8F818209AF8112002F00F02A8F88F
:1028F0001A209AF8122013FB0243434407EB000A04
:10290000C8F8C831C8F830A0A9E53E483BF02EFF12
:10291000002009B0BDE8F08F98F8B93198F8BA41B5
:1029200088F8BD31FFF75CFC00287FF49AAE2046A2
:10293000FFF73EFD044600287FF493AEB7F8542617
:10294000B7F8D435304913441BB28022A1F520607A
:10295000A7F8D435A7F854363BF042F92B48214666
:102960004FF4807233F0B8F9B7F85C36B7F9682CD9
:1029700001331BB2A7F85C3632B193FBF2F102FBD4
:102980001133B3FA83F25209002087F85A26FFF771
:10299000F5F90120FFF7F2F90220FFF7EFF9002027
:1029A000FFF772F90120FFF76FF90220FFF76CF9CA
:1029B000B8F91200D7F864CCD8F80810C000002885
:1029C00040F3DB8200246346B8F91020CDF804B050
:1029D0002546A4461C46D7F8603C05EB030ED8F804
:1029E0000C309E45924680F0B480002A40F3A680C9
:1029F0004FF0000948464FF6E37E98E052FC002075
:102A000054F30020B42304085C070120DCFD0020FF
:102A1000B8F91E209CFBF2F20AFB02F2B8F91C3056
:102A200099FBF3F303EBC2030CFB0AF209EBC202BE
:102A300002F62C3203F62C4308EB420208EB430368
:102A4000B2F90620B3F906304FF0120B120213FB55
:102A50000B22B8F922B09CFBFBFB0AFB0BFBB8F97D
:102A600020A099FBFAF909EBCB0909F62C5908EBE0
:102A7000490940F26F1BB9F906A0C3EB0319C3EB78
:102A80008909C9EB8909A2EB09091AFB0B2240F25B
:102A90003A2B13FB0B9312124FF6247B1AFB0B9964
:102AA0001AFB0E33FF2A4FEA29294FEA232303D9C1
:102AB000CCBF4FF0FF320022B9F1FF0FD2B204D9E0
:102AC000CCBF4FF0FF394FF00009FF2B5FFA89F9B7
:102AD00003D9CCBF4FF0FF3300234FEA9909DBB293
:102AE000D20849EA8212DB0843EA4219D8F80420E6
:102AF000D7F8603C13445A19D8F8003023440344F3
:102B000001FB0233013006F8139006EB43034FEA52
:102B1000292983F80190B8F910A0D7F8644CD8F8A7
:102B2000081000B2B0EBCA0F8146524606DA03190C
:102B30008B42FFF46DAFB8F910A05246B8F91230CD
:102B400001352DB2B5EBC30FAC464FEAC300FFF61B
:102B500042AFDDF804B0A4460CEBCA038B42C7F8C1
:102B6000643C0FD3D7F8602C00231044C7F8643CB2
:102B7000C7F8600CD8F80C30834240F20482B8F9F0
:102B8000B41158E5002BFAD1D7F8600CF2E7B8F889
:102B90001230B8F810209E4C13FB02F3002B2FDDEF
:102BA000002598F8B93198F8BA9188F8BD31FFF747
:102BB00017FB00287FF455AD4846FFF7F9FB0028C6
:102BC0007FF44FADB7F8D425B7F85416914B0A44AB
:102BD00012B2A7F8D425A7F85426A21E33F9021F73
:102BE00022F8021F9B45F9D1B8F81030B8F812202E
:102BF00001352DB213FB02F39D4204F18004D0DBBA
:102C0000B8F81430B8F8162013FB02F3002B2FDDB0
:102C1000002598F8BB3198F8BC9188F8BD31FFF7D2
:102C2000DFFA00287FF41DAD4846FFF7C1FB0028FE
:102C30007FF417ADB7F8D425B7F85616754B0A448C
:102C400012B2A7F8D425A7F85626A21E33F9021F00
:102C500022F8021F5B45F9D1B8F81430B8F81620F5
:102C600001352DB213FB02F39D4204F18004D0DB49
:102C7000B8F81A30B8F8182013FB02F3002B7FF7CE
:102C800073AE002598F8BB3198F8BC9188F8BD3137
:102C9000FFF7A6FA00287FF4E4AC4846FFF788FB6C
:102CA00000287FF4DEACB7F8D425B7F85816594B96
:102CB0000A4412B2A7F8D425A7F85826A21E33F961
:102CC000021F22F8021F5B45F9D1B8F81830B8F896
:102CD0001A2001352DB213FB02F39D4204F180044A
:102CE000D0DB41E64C483BF041FD11E69AF80A3052
:102CF00088F8B6319AF80B301B09A8F810309AF80A
:102D00000B3003F00F03A8F812309AF80C20802340
:102D1000342413FB02424244C8F8C0219AF80A2026
:102D200088F8B7214FF00115C8F814509AF80C2014
:102D300013FB02424244C8F8C4219AF80A2088F8DA
:102D4000B821C8F818509AF80C2013FB02434344EA
:102D500007EB000AC8F8C831C8F830A0FFF77FBBFE
:102D60000AF1450513F8011B22F8021F9D42F9D113
:102D70009AF8452002F00F0208EBC21232320AF133
:102D800046030AF1860413F8011B22F8021FA3422E
:102D9000F9D107EB000AC8F830A0FFF760BB0AF1D1
:102DA000040AFF2EC8F830A03FF459AB1B4B069322
:102DB000A3F19E02803B0492059357464FEA161AF0
:102DC00006F00F0606EB4A035C0104F24A2545446F
:102DD000791C07F1110C2846002211F801EB20F8AC
:102DE00002EF724461451FFA82FE12B2F5D10EF174
:102DF000110E0FFA8EF20192069A4FEA0329CDE9DD
:102E000002A609F2651902EB040E00200AE000BFD9
:102E10005CFD00205A070120C4230408F2F30020BF
:102E2000AE451BD035F902AFBAF1000FF8D040F330
:102E30008B8009EB000108EB41010CEB0A0B6246A9
:102E400012F8016B21F8026F5A45F9D11FFA8AFA7C
:102E5000D4448244AE450FFA8AF0E3D108EB040271
:102E6000DDE902A6B2F94C224FEA0319002A6ED11D
:102E700095B2691C0AB209EB020B08EB4B03104632
:102E8000B3F94C32002BF3D0002A7EDD04F6CC20BF
:102E90004A00404400210393029232F01DFF04F6E1
:102EA0004C30029A0021404432F016FF0BF2A4523B
:102EB000039BA91C09B208EB420208EB4B0B013B38
:102EC0004FF000000F299080ABF8CC3A18DC09EBEA
:102ED000010208EB420308EB4200B3F8CA3AB0F82B
:102EE0004C02013301315B009BB208EB420509B291
:102EF000013818441029A5F84C3BA5F8CC0AE6D1B6
:102F000008EB040202234FF0000113FB0A63A2F84E
:102F1000CC115B01049AD35E059A04F5E671414435
:102F20001444B1F8802013441BB221F8023F8C42B4
:102F3000F7D1019B1F44C8F830703E78FF2E7FF414
:102F40003DAFBA46FFF78BBA4FF0000A81E7012187
:102F50000020484400F2A45308EB430308EB400070
:102F6000013A4FF000059D80A0F8CC2AAFE70AF1A6
:102F7000040AC8F830A0FFF772BAB8F910A0EBE560
:102F80000020FFF7C0BB0120C3E4A91C09B21A4608
:102F9000DFE7531E9BB20022A1F8CC3A2D01A1F825
:102FA0004C2B0126AA19013308EB420108EB420021
:102FB0005B009BB2B1F84C12A0F84C3B1FFA86FBA9
:102FC000013B0B440BF10109A0F8CC3A0FFA89F947
:102FD000FFF7F4BB0AF2A45208EB4A0A08EB4202DC
:102FE000AAF8CC3AAB1908EB43030021B3F8CA3A6C
:102FF0009180D7E7F0B5012193B0082027F06EF952
:103000004FF40055C44840F2012602A9CDE902560A
:1030100026F09AFA0121042027F060F90424BF4821
:1030200002A9CDE9024626F08FFABC48214626F0D7
:1030300001FBB948294626F0FFFAB848214626F098
:10304000FBFA202001F034FD0A230046013BFCD1AD
:10305000B248042126F0EEFAAF484FF4005126F0B2
:10306000EBFAAE48042126F0E7FACA2001F020FD71
:103070000A230046013BFCD1A848042126F0DAFAD5
:10308000A5484FF4005126F0D5FAA448042126F0B3
:10309000D3FAC32001F00CFD0A230046013BFCD10A
:1030A0009E48042126F0C6FA9B484FF4005126F0B2
:1030B000C1FA9A48042126F0BFFA082001F0F8FC72
:1030C0000A230046013BFCD19448042126F0B2FAC1
:1030D00091484FF4005126F0ADFA9048042126F0B3
:1030E000ABFA502001F0E4FC0A230046013BFCD17E
:1030F0008A48042126F09EFA87484FF4005126F0B2
:103100009BFA8648042126F097FACF2001F0D0FCE4
:103110000A240046013CFCD18048042126F08AFAAA
:103120007D484FF4005126F085FA7C48042126F0B2
:1031300083FA204601F0BCFC0A230046013BFCD187
:103140007648042126F076FA73484FF4005126F0B1
:1031500071FA7248042126F06FFAC12001F0A8FC30
:103160000A230046013BFCD16C48042126F062FA98
:1031700069484FF4005126F05DFA6848042126F0B2
:103180005BFA302001F094FC0A230046013BFCD19D
:103190006248042126F04EFA5F484FF4005126F0B1
:1031A0004BFA5E48042126F047FAED2001F080FC3E
:1031B0000A230046013BFCD15848042126F03AFA84
:1031C00055484FF4005126F035FA5448042126F0B2
:1031D00033FA642001F06CFC0A230046013BFCD169
:1031E0004E48042126F026FA4B484FF4005126F0B1
:1031F00021FA4A48042126F01FFA032001F058FC66
:103200000A230046013BFCD14448042126F012FA6F
:1032100041484FF4005126F00DFA4048042126F0B1
:103220000BFA122001F044FC0A230046013BFCD1BA
:103230003A48042126F0FEF937484FF4005126F0B1
:10324000F9F93648042126F0F7F9812001F030FC25
:103250000A230046013BFCD13048042126F0EAF95C
:103260002D484FF4005126F0E7F92C48042126F0B0
:10327000E3F9E82001F01CFC0A230046013BFCD1E5
:103280002648042126F0D6F923484FF4005126F0B1
:10329000D1F92248042126F0CFF9852001F008FC5D
:1032A0000A240046013CFCD11C48042126F0C2F946
:1032B00019484FF4005126F0BDF91848042126F0B2
:1032C000BBF9204601F0F4FB0A230046013BFCD188
:1032D0001248042126F0AEF90F484FF4005126F0B1
:1032E000A9F90E48042126F0A7F9782001F0E0FBA7
:1032F0000A230046013BFCD10848042126F09AF934
:1033000005484FF4005126F097F90448042126F0AF
:1033100093F9CB2004E000BF000C024000080240FB
:1033200001F0C6FB0A230046013BFCD1C248042140
:1033300026F080F9C1484FF4005126F07BF9BE48D1
:10334000042126F079F9392001F0B2FB0A23004666
:10335000013BFCD1B848042126F06CF9B7484FF482
:10336000005126F067F9B448042126F065F92C20B5
:1033700001F09EFB0A240046013CFCD1AE4804212A
:1033800026F058F9AD484FF4005126F053F9AA48F9
:10339000042126F051F9204601F08AFB0A23004659
:1033A000013BFCD1A448042126F044F9A3484FF482
:1033B000005126F03FF9A048042126F03DF93420C1
:1033C00001F076FB0A230046013BFCD19A48042118
:1033D00026F030F999484FF4005126F02BF9964821
:1033E000042126F029F9022001F062FB0A2300469D
:1033F000013BFCD19048042126F01CF98F484FF482
:10340000005126F019F98C48042126F015F9F7200F
:1034100001F04EFB0A230046013BFCD18648042103
:1034200026F008F985484FF4005126F003F9824848
:10343000042126F001F9202001F03AFB0A2300467E
:10344000013BFCD17C48042126F0F4F87B484FF482
:10345000005126F0F1F87848042126F0EDF8EA2032
:1034600001F026FB0A240046013CFCD172480421ED
:1034700026F0E0F871484FF4005126F0DBF86E4872
:10348000042126F0D9F8204601F012FB0A24004658
:10349000013CFCD16848042126F0CCF867484FF481
:1034A000005126F0C7F86448042126F0C5F82046EC
:1034B00001F0FEFA0A230046013BFCD15E480421DC
:1034C00026F0B8F85D484FF4005126F0B5F85A4898
:1034D000042126F0B1F8B12001F0EAFA0A240046EE
:1034E000013CFCD15448042126F0A4F853484FF481
:1034F000005126F09FF85048042126F09DF8204600
:1035000001F0D6FA0A230046013BFCD14A480421C7
:1035100026F090F849484FF4005126F08BF84648C1
:10352000042126F089F81B2001F0C2FA0A23004684
:10353000013BFCD14048042126F07CF83F484FF481
:10354000005126F079F83C48042126F075F8B620A1
:1035500001F0AEFA0A230046013BFCD136480421B3
:1035600026F068F835484FF4005126F063F83248E9
:10357000042126F061F80A2001F09AFA0A23004695
:10358000013BFCD12C48042126F054F82B484FF481
:10359000005126F04FF82848042126F04DF8A220CB
:1035A00001F086FA0A230046013BFCD1224804219F
:1035B00026F040F821484FF4005126F03DF81E480F
:1035C000042126F039F8C02001F072FA0A230046DF
:1035D000013BFCD11848042126F02CF817484FF481
:1035E000005126F027F81448042126F025F8102071
:1035F00001F05EFA0A230046013BFCD10E4804218B
:1036000026F018F80D484FF4005126F015F80A4836
:10361000042126F011F8C12001F04AFA0A230046DD
:10362000013BFCD10448042126F004F803484FF480
:10363000005125F0FFFF03E000080240000C0240AB
:10364000C248042125F0F8FF102001F031FA0A23C6
:103650000046013BFCD1BD48042125F0EBFFBC48EE
:103660004FF4005125F0E8FFB848042125F0E4FFAD
:10367000C52001F01DFA0A230046013BFCD1B348E6
:10368000042125F0D7FFB2484FF4005125F0D2FFB6
:10369000AE48042125F0D0FF452001F009FA0A23A5
:1036A0000046013BFCD1A948042125F0C3FFA848EE
:1036B0004FF4005125F0BEFFA448042125F0BCFFC3
:1036C000152001F0F5F90A230046013BFCD19F4883
:1036D000042125F0AFFF9E484FF4005125F0ACFFC8
:1036E0009A48042125F0A8FFC72001F0E1F90A2338
:1036F0000046013BFCD19548042125F09BFF9448EE
:103700004FF4005125F096FF9048042125F094FFD6
:10371000902001F0CDF90A230046013BFCD18B48F3
:10372000042125F087FF8A484FF4005125F084FFDB
:103730008648042125F080FF362001F0B9F90A23DC
:103740000046013BFCD18148042125F073FF8048ED
:103750004FF4005125F06EFF7C48042125F06CFFEA
:10376000C82001F0A5F90A230046013BFCD17748A7
:10377000042125F05FFF76484FF4005125F05CFFEF
:103780007248042125F058FFF22001F091F90A2433
:103790000046013CFCD16D48042125F04BFF6C48EC
:1037A0004FF4005125F046FF6848042125F044FFFE
:1037B000204601F07DF90A230046013BFCD1634815
:1037C000042125F037FF62484FF4005125F034FF03
:1037D0005E48042125F030FFB02001F069F90A238A
:1037E0000046013BFCD15948042125F023FF5848ED
:1037F0004FF4005125F01EFF5448042125F01CFF12
:10380000C22001F055F90A230046013BFCD14F4884
:10381000042125F00FFF4E484FF4005125F00CFF16
:103820004A48042125F008FFB62001F041F90A2397
:103830000046013BFCD14548042125F0FBFE4448ED
:103840004FF4005125F0F6FE4048042125F0F4FE27
:103850000A2001F02DF90A230046013BFCD13B4828
:10386000042125F0E7FE3A484FF4005125F0E2FE2E
:103870003648042125F0E0FEA72001F019F90A23BB
:103880000046013BFCD13148042125F0D3FE3048ED
:103890004FF4005125F0CEFE2C48042125F0CCFE3B
:1038A000272001F005F90A230046013BFCD12748F7
:1038B000042125F0BFFE26484FF4005125F0BAFE42
:1038C0002248042125F0B8FE042001F0F1F80A2373
:1038D0000046013BFCD11D48042125F0ABFE1C48ED
:1038E0004FF4005125F0A8FE1848042125F0A4FE4D
:1038F0002A2001F0DDF80A240046013CFCD11348DF
:10390000042125F097FE12484FF4005125F092FE55
:103910000E48042125F090FE204601F0C9F80A2443
:103920000046013CFCD10948042125F083FE0848EB
:103930004FF4005125F07EFE0448042125F07CFE62
:10394000204601F0B5F80A2404E000BF0008024058
:10395000000C02400046013CFCD1C248042125F085
:1039600069FEC1484FF4005125F064FEBD480421B2
:1039700025F062FE204601F09BF80A230046013B39
:10398000FCD1B848042125F055FEB7484FF400514A
:1039900025F050FEB348042125F04EFEEF2001F043
:1039A00087F80A230046013BFCD1AE48042125F0EC
:1039B00041FEAD484FF4005125F03EFEA9480421D8
:1039C00025F03AFE2B2001F073F80A240046013C52
:1039D000FCD1A448042125F02DFEA3484FF400514A
:1039E00025F028FE9F48042125F026FE204601F000
:1039F0005FF80A240046013CFCD19A48042125F0D6
:103A000019FE99484FF4005125F014FE9548042101
:103A100025F012FE204601F04BF80A230046013B38
:103A2000FCD19048042125F005FE8F484FF4005149
:103A300025F000FE8B48042125F0FEFD012001F059
:103A400037F80A230046013BFCD18648042125F0C3
:103A5000F1FD85484FF4005125F0ECFD814804212B
:103A600025F0EAFD3F2001F023F80A230046013B40
:103A7000FCD17C48042125F0DDFD7B484FF400514A
:103A800025F0DAFD7748042125F0D6FDF62001F077
:103A90000FF80A230046013BFCD17248042125F0AF
:103AA000C9FD71484FF4005125F0C4FD6D48042153
:103AB00025F0C2FD012000F0FBFF0A240046013C76
:103AC000FCD16848042125F0B5FD67484FF400514A
:103AD00025F0B0FD6348042125F0AEFD204600F03E
:103AE000E7FF0A230046013BFCD15E48042125F094
:103AF000A1FD5D484FF4005125F09CFD594804217B
:103B000025F09AFD062000F0D3FF0A230046013B72
:103B1000FCD15448042125F08DFD53484FF4005149
:103B200025F08AFD4F48042125F086FD2C2000F069
:103B3000BFFF0A230046013BFCD14A48042125F07F
:103B400079FDC8230046013BFCD147484FF40051A2
:103B500025F072FD4348042125F06EFD262000F07B
:103B6000A7FF0A230046013BFCD13E48042125F073
:103B700061FD3D484FF4005125F05CFD39480421BA
:103B800025F05AFD012000F093FF0A230046013B77
:103B9000FCD13448042125F04DFD33484FF4005149
:103BA00025F04AFD2F48042125F046FDE02000F0D5
:103BB0007FFF0A230046013BFCD12A48042125F05F
:103BC00039FD29484FF4005125F034FD25480421E2
:103BD00025F032FD0F2000F06BFF0A230046013B69
:103BE000FCD12048042125F025FD1F484FF4005149
:103BF00025F020FD1B48042125F01EFD292000F0A2
:103C000057FF0A230046013BFCD11648042125F04A
:103C100011FD15484FF4005125F00CFD1148042109
:103C200025F00AFD242000F043FF0A230046013B53
:103C3000FCD10C48042125F0FDFC0B484FF4005149
:103C400025F0F8FC0748042125F0F6FC0C2000F0D4
:103C50002FFF0A230046013BFCD10248042125F036
:103C6000E9FC03E000080240000C0240C4484FF4A5
:103C7000005125F0DFFCC348042125F0DDFC0E20B7
:103C800000F016FF0A230046013BFCD1BD48042189
:103C900025F0D0FCBA484FF4005125F0CBFCB948D0
:103CA000042125F0C9FC092000F002FF0A23004688
:103CB000013BFCD1B348042125F0BCFCB0484FF4D3
:103CC000005125F0B7FCAF48042125F0B5FC4E208B
:103CD00000F0EEFE0A230046013BFCD1A948042176
:103CE00025F0A8FCA6484FF4005125F0A3FCA548F8
:103CF000042125F0A1FC782000F0DAFE0A2300461A
:103D0000013BFCD19F48042125F094FC9C484FF4D2
:103D1000005125F08FFC9B48042125F08DFC3C20B0
:103D200000F0C6FE0A230046013BFCD19548042161
:103D300025F080FC92484FF4005125F07BFC91481F
:103D4000042125F079FC092000F0B2FE0A23004688
:103D5000013BFCD18B48042125F06CFC88484FF4D2
:103D6000005125F067FC8748042125F065FC1320ED
:103D700000F09EFE0A230046013BFCD1814804214D
:103D800025F058FC7E484FF4005125F053FC7D4847
:103D9000042125F051FC052000F08AFE0A2300468C
:103DA000013BFCD17748042125F044FC74484FF4D2
:103DB000005125F03FFC7348042125F03DFC1720FD
:103DC00000F076FE0A230046013BFCD16D48042139
:103DD00025F030FC6A484FF4005125F02BFC69486F
:103DE000042125F029FC112000F062FE0A2400467F
:103DF000013CFCD16348042125F01CFC60484FF4D1
:103E0000005125F017FC5F48042125F015FC2046E1
:103E100000F04EFE0A230046013BFCD15948042124
:103E200025F008FC56484FF4005125F005FC554894
:103E3000042125F001FCE12000F03AFE0A240046AE
:103E4000013CFCD14F48042125F0F4FB4C484FF4D1
:103E5000005125F0EFFB4B48042125F0EDFB2046F7
:103E600000F026FE0A230046013BFCD14548042110
:103E700025F0E0FB42484FF4005125F0DBFB4148C0
:103E8000042125F0D9FB162000F012FE0A2300467B
:103E9000013BFCD13B48042125F0CCFB38484FF4D2
:103EA000005125F0C7FB3748042125F0C5FB1B2036
:103EB00000F0FEFD0A230046013BFCD131480421FD
:103EC00025F0B8FB2E484FF4005125F0B3FB2D48E8
:103ED000042125F0B1FB042000F0EAFD0A2300468E
:103EE000013BFCD12748042125F0A4FB24484FF4D2
:103EF000005125F09FFB2348042125F09DFB112054
:103F000000F0D6FD0A230046013BFCD11D480421E8
:103F100025F090FB1A484FF4005125F08BFB19480F
:103F2000042125F089FB072000F0C2FD0A2300468A
:103F3000013BFCD11348042125F07CFB10484FF4D1
:103F4000005125F077FB0F48042125F075FB312047
:103F500000F0AEFD0A230046013BFCD109480421D4
:103F600025F068FB06484FF4005125F063FB054837
:103F7000042125F061FB332000F09AFD04E000BF2E
:103F8000000C0240000802400A230046013BFCD11D
:103F9000C248042125F04EFBC1484FF4005125F0E2
:103FA00049FBBE48042125F047FB422000F080FD7C
:103FB0000A230046013BFCD1B848042125F03AFB16
:103FC000B7484FF4005125F035FBB448042125F0E3
:103FD00033FB052000F06CFD0A230046013BFCD1B9
:103FE000AE48042125F026FBAD484FF4005125F0E2
:103FF00021FBAA48042125F01FFB0C2000F058FDEE
:104000000A230046013BFCD1A448042125F012FB01
:10401000A3484FF4005125F00DFBA048042125F0E2
:104020000BFB0A2000F044FD0A230046013BFCD1B3
:104030009A48042125F0FEFA99484FF4005125F0E2
:10404000F9FA9648042125F0F7FA282000F030FD0F
:104050000A230046013BFCD19048042125F0EAFAEE
:104060008F484FF4005125F0E5FA8C48042125F0E3
:10407000E3FA2F2000F01CFD0A230046013BFCD18F
:104080008648042125F0D6FA85484FF4005125F0E2
:10409000D1FA8248042125F0CFFA0F2000F008FD64
:1040A0000A230046013BFCD17C48042125F0C2FADA
:1040B0007B484FF4005125F0BFFA7848042125F0E1
:1040C000BBFA112000F0F4FC0A230046013BFCD1AE
:1040D0007248042125F0AEFAC8230046013BFCD10A
:1040E0006F484FF4005125F0A7FA6C48042125F0E1
:1040F000A3FA292000F0DCFC0A230046013BFCD196
:104100006648042125F096FA65484FF4005125F0E1
:1041100093FA6248042125F08FFA2C2000F0C8FCA5
:104120000A240046013CFCD15C48042125F082FAB7
:1041300001214FF0806026F001F901214FF40000C9
:1041400026F0CCF801216F2026F0C8F855480E2241
:10415000032125F07FFA53480E22042125F07AFA34
:1041600050480E22062125F075FA4E480E220B21EA
:1041700025F070FA4B480E220C2125F06BFA40F224
:10418000022341F65802474802A9CDE9022325F04F
:10419000DBF945480922214625F05CFA424809220C
:1041A000012125F057FA40480E22082125F052FA45
:1041B0003D480E22092125F04DFA3B480E220A21E6
:1041C00025F048FA0E2238480B2125F043FA40F634
:1041D00003733548029302A925F0B6F92F480E2241
:1041E000062125F037FA2D480E22072125F032FA54
:1041F0000E222A480A2125F02DFA4FF49863274809
:10420000029302A925F0A0F925480E22032125F0EA
:1042100021FA0E222248062125F01CFA48232048C4
:10422000029302A925F090F90E2220480A2125F0D8
:1042300011FA4FF480631D48029302A925F084F916
:104240001B480E22062125F005FA19480E220721E7
:1042500025F000FA164809220A2125F0FBF9144836
:104260000E220B2125F0F6F9092211480C2125F028
:10427000F1F94FF4E6530E48029302A925F064F9D0
:1042800004220721C02025F019FF4FF4003026F04A
:1042900013F8012025F01EFF0CE000BF00080240CB
:1042A000000C0240000002400004024000140240E2
:1042B000001802403D2026F0DDF80028FAD002A8C0
:1042C00025F07AFC40F20D171D220323012500245E
:1042D0000921CDE90937089240F2431640F217123E
:1042E00040F2471302A8CDE90C23CDE906150B9641
:1042F000CDE90244CDE90444CDE90E44109425F003
:104300000BFC254B019301A824F082F804230493AD
:104310000223CDE90563FF2240F2E313CDE9072430
:104320000F934FF4F0724FF4A073CDE910234FF4C4
:1043300080630C9305234FF0504202A90D93174858
:104340000E921E230293164E0397CDE909440B9457
:1043500025F08CFC02A913480E9625F087FC284610
:1043600025F07EFC29460D4825F0E6FC29460D483F
:1043700025F0E2FC284625F073FC204625F03CFCA5
:10438000284625F02BFC0849084A094B0D70166099
:104390001D7013B0F0BD00BF5806000184680140D5
:1043A000005802D004690140D4A90120D8A90120F5
:1043B000DCA9012070B51F4B1D78E5B1012D00D09F
:1043C00070BD1D4A1D484FF0504111600026FF216D
:1043D0001E7025F05BFD1A4B1B78C3B1194C0820E9
:1043E0002946267025F09AFD022025F039FC237815
:1043F000002BFCD070BD104A134911600F480126F4
:1044000029461E7025F042FD0D4B1B7823B9BDE8EF
:104410007040012025F024BC0A4C0820314625704C
:1044200025F07CFD022025F01BFC2378002BFCD01E
:1044300070BD00BFDCA90120D8A90120046901409A
:10444000D4A90120F81D0120005802D040B1012854
:1044500000D07047064A074B074911601870704733
:10446000034A044B4FF0504111601870704700BF71
:10447000D8A90120DCA90120005802D010B5D8B17C
:10448000012815D00E4B1B786BB10E4C0023082071
:104490000121237025F042FD022025F0E1FB237865
:1044A000002BFCD010BDBDE81040012025F0D8BB8A
:1044B000054825F0EBFCE5E7044825F0E7FCE1E7DB
:1044C000D4A90120F81D012004690140846801403D
:1044D00008B5082025F04EFD0021082025F01EFD1E
:1044E000014B01221A7008BDF81D012000B5012101
:1044F00083B0402025F0F2FE40F201324FF4005329
:1045000004486946CDE9003225F01EF803B05DF895
:1045100004FB00BF0018024018B941B1012901D0C5
:104520007047704704484FF4005125F085B80248A1
:104530004FF4005125F07EB80018024070B58AB0E3
:104540000024184E019605464FF416308DF80840A9
:1045500039F036FB01AB0146059322462346284637
:104560000391CDE906468DF810400894FDF75EFFF3
:104570000D4B04AA1A60FCF76DF80C4A1168136819
:104580005B1AB3F5FA7F05D2004613685B1AB3F5E0
:10459000FA7FF9D3FBF74CFF039839F019FB0AB007
:1045A00070BD00BFF00040015CA90120E0A901201E
:1045B000054A116813685B1A984204D900461368CB
:1045C0005B1A8342FAD37047E0A90120024A1368BC
:1045D00001331360704700BFE0A90120014608B510
:1045E00001483AF0F1FAFEE7E423040870B527F039
:1045F00011FC4FF0E023294A294C5C61F02082F83D
:104600002300002107209961186182F8231000F02F
:1046100057F8244CFBF7EAFD23483AF0A7F800F0DE
:10462000EFF9FCF799FFFEF7E5FCFBF73FFF1F48AA
:10463000FFF784FF44F61F652AF0E4FF29F0D6FB5C
:10464000FFF754FF00F0C4FAFBF7B0FD2668062020
:1046500003E029F0E5FB06280BD023689B1BAB4247
:10466000F7D9062805D01248FFF768FF1148FFF771
:10467000B5FF00202AF0E4FF48B10F483AF076F881
:1046800000210846FFF748FF03F040F9FEE708481D
:10469000FFF754FF0948FFF7A1FF00BF00ED00E05E
:1046A0003F900200E0A90120F8230408D81F050864
:1046B000D000050810240408242404083024040829
:1046C00030B5012199B07E2025F008FE40F202238A
:1046D000B64801930C22052124F0BCFF0C22B348FC
:1046E000062124F0B7FF6023B0480093694624F008
:1046F0002BFF0C22AE480021012424F0ABFFAC4874
:104700000094694624F020FFAA480C22002124F0DE
:10471000A1FFA8480C22214624F09CFFA5480C22AA
:10472000082124F097FFA3480C22092124F092FFCE
:10473000A0480C220A2124F08DFF9E480C220E2155
:1047400024F088FF0C229B480F2124F083FF4CF2B9
:10475000037398480093694624F0F6FE96480C22AD
:10476000002124F077FF94480C22214624F072FFA8
:1047700091480C22072124F06DFF8F480C2208215C
:1047800024F068FF8C480C22092124F063FF8A483A
:104790000C220A2124F05EFF87480C220B2124F012
:1047A00059FF0C221146844824F054FF82480C2201
:1047B0000D2124F04FFF80480C220E2124F04AFFE7
:1047C0000C227D480F2124F045FF4FF683737A4871
:1047D0000093694624F0B8FE78480C22002124F0AA
:1047E00039FF76480C22214624F034FF73480C220E
:1047F000022124F02FFF71480C22032124F02AFF0C
:104800006E480C22042124F025FF6C480C2205215F
:1048100024F020FF69480C220B2124F01BFF0C22FE
:104820001146664824F016FF64480C220D2124F03E
:1048300011FF62480C220E2124F00CFF0C225F486D
:104840000F2124F007FF4FF63F035C4800936946B1
:1048500024F07AFE5A480C22002124F0FBFE58482E
:104860000C22214624F0F6FE55480C22042124F0A7
:10487000F1FE53480C22052124F0ECFE50480C2296
:10488000082124F0E7FE0C224D480F2124F0E2FE1F
:1048900048F233134A480093694624F055FE2146F6
:1048A000204625F033FD02230721CDE90631CDE96D
:1048B0000A33CDE90C34102040230025CDE9100344
:1048C00004224FF40063CDE90821CDE90E524FF4E4
:1048D000C0714FF4005214930DA806AB1793CDE9A5
:1048E0001215CDE9155224F0B7FB0823CDE9024398
:1048F000CDE904452021012024F0D0FC0446002805
:10490000F8D102A824F03AFC0520FFF751FE02215D
:1049100008220123CDE90212CDE90434202101202F
:1049200024F0BCFC04460028F8D102A824F026FCA0
:10493000032108220423CDE90212CDE90434202109
:10494000012024F0ABFC0028F9D102A824F016FCC9
:104950002021012024F0A2FC0028F9D102A824F093
:104960000DFC04200821012240F23123CDE902018F
:10497000CDE904232021012024F090FC0028F9D166
:1049800002A824F0FBFB40F2AB2024F017FC20210E
:10499000012024F083FC0028F9D101464FF40002E5
:1049A0004FF0504031F098F919B030BD000402408A
:1049B00000080240000C02400010024000140240B7
:1049C00000180240B9B100F1FF3C6246002302F832
:1049D000013F01339942FAD108440138624601E0AF
:1049E000824208D00132531EA3EB0C031178DBB2D4
:1049F0009942F5D07047014839F0B8BE4424040804
:104A000010B5012188B04FF4801025F097FC0121EA
:104A10002020264C25F062FC0121202025F05EFCA0
:104A20000121202025F05AFC20460522072124F0F0
:104A300011FE20460522082124F00CFE2046052206
:104A4000092124F007FE40F20222802301A920461A
:104A5000CDE9013224F078FD4FF4807301A920469E
:104A6000019324F071FD4FF4007301A92046A4F5D1
:104A70004444019324F068FD204625F03FFE1822AF
:104A80004FF0827100234FF00070CDE90313CDE9A0
:104A90000502072303A92046ADF81C3025F096FE39
:104AA0000121204625F040FF08B010BD001402404F
:104AB00010B504460A48022126F004F80028F9D06F
:104AC0000748214625F0C4FF0548012125F0FAFFDB
:104AD0000028F9D0024825F0B7FFC0B210BD00BFD2
:104AE0000050014010B504460548022125F0EAFFB8
:104AF0000028F9D021460248BDE8104025F0A8BFA3
:104B00000050014008B50548012125F0DBFF0028D1
:104B1000F9D0024825F098FFC0B208BD005001400E
:104B200008B536F08BF9162303604FF0FF3008BD4F
:104B30000020704770B51E1E12DD541EA51903E03B
:104B4000FBF7A8FBAC420BD014F8010F0A28F7D1F1
:104B50000D20FBF79FFB2078FBF79CFBAC42F3D1C9
:104B6000304670BD0020704738B50C4B0C4A1868B1
:104B70000144914201D8196038BD0A4C04F10C057A
:104B800014F8010BFBF786FBAC42F9D136F056F96D
:104B90000C2303604FF0FF3038BD00BF0000002041
:104BA00000B074D0502404084FF400535360002028
:104BB000704700BF01207047FEE700BF08B536F020
:104BC0003DF9162303604FF0FF3008BD0120704708
:104BD00070B5012186B0084625F080FB01214FF415
:104BE000804025F0ABFB002454488DF814404FF46E
:104BF000004604A98DF81740049624F0A5FC0F2167
:104C0000204625F0A1FF01254FF4406302A8ADF82E
:104C10000C3002968DF80E5023F0A0FF484B019304
:104C200001A823F0F5FB474A4749157002230C7091
:104C3000C2F8024021466A468220FCF75FFEBDF8BA
:104C4000002041F208139A4274D1022203218220EB
:104C5000FCF7B4FD0520FFF7ABFC224603218220C0
:104C6000FCF7ACFD04218220FCF7D0FC042100F00D
:104C7000FE028220FCF7A2FD04218220FCF7C6FC84
:104C8000042100F0FD028220FCF798FD042182201F
:104C9000FCF7BCFC042100F0F7028220FCF78EFD3B
:104CA0002A460A218220FCF789FD48222021822001
:104CB000FCF784FD0520FFF77BFC2A46212182209A
:104CC000FCF77CFD17218220FCF7A0FC224617216F
:104CD0008220FCF773FD9A2241218220FCF76EFDB1
:104CE00022464A218220FCF769FD2A464B21822078
:104CF000FCF764FD22464B218220FCF75FFD072272
:104D000056218220FCF75AFD2A4658218220FCF7C2
:104D100055FD032240218220FCF750FDFF220B218C
:104D20008220FCF74BFD2A4609218220FCF746FD34
:104D300006B070BD0548FFF751FC00BF00000240FF
:104D4000280F0F01E4A90120FC1D012060240408A4
:104D500030B5402183B08220FCF758FC40B2444C6F
:104D6000C343DB0F0028237011DB424AD2E9013034
:104D7000A08001224B2182206380FCF71FFD0022CE
:104D80004B21822003B0BDE83040FCF717BD04235F
:104D90000DEB03024D218220FCF7B0FDBDF804307D
:104DA000BDF806205BBA40F6B8319BB252BA8B42CE
:104DB00092B219DCC3F571630E33B3F5616F43DB57
:104DC000EF23B2F5B97F1EDC2A49D1E90152AB428B
:104DD0008CBF5D1BED1A00202A44052A94BFD1E93F
:104DE0000130C1E90130C3E7C3F56D6308330E2B11
:104DF00036DC2049B2F5B97F4D6818DC00208A689E
:104E00000346121AE8E740F627718A4221DC1A4964
:104E1000A2F5B470A1FB0010C00816494D689D4270
:104E200010D25D1B8A688242EBD2821AD4E740F628
:104E300027739A4210DC104BA2F5B470A3FB00302C
:104E4000C0080023ED1AEDE70C49A1FB0313DB08B2
:104E5000B7E740F23F10E0E740F23F100023E1E700
:104E6000064981FB0351D8170B44C0EBE303A8E7C5
:104E7000E4A90120FC1D0120A38B2EBA8988888813
:104E800008B50B4B1A782AB10A4AD9681268521A27
:104E9000032A00D808BD4FF0000CFF220B2182200E
:104EA00083F800C0FCF78AFCBDE80840FFF750BF5C
:104EB000FC1D0120E0A9012038B5032260218220D9
:104EC000FCF77CFC0A20FFF773FB61218220FCF7D2
:104ED0009DFB622105028220FCF798FBADB20446DF
:104EE0002C43A4B221460E4839F06EFE07EE904ADC
:104EF000F8EE677A17EE900A30F0F2F8094B0022CC
:104F000030F046F904A3D3E9002330F06BFA30F017
:104F100001FCC0B238BD00BF6666666666C6524018
:104F2000782404080000084008B54FF4004023F03E
:104F30006DFE00B908BD4FF4004023F071FE034A36
:104F4000034B1268DA600121197008BDE0A9012045
:104F5000FC1D01200C480D4A904208B507D2013AC9
:104F6000121A22F003020A49043238F039FE1D48B1
:104F70001D494FF000028842B8BF40F8042BFADB0D
:104F8000BDE80840FFF732BB0000002088F1002098
:104F9000583E060808B5024839F0E8FBFEE700BFB6
:104FA0007C24040808B5024839F0E0FBFEE700BFA6
:104FB0009C24040808B5024839F0D8FBFEE700BF7E
:104FC000B024040808B5024839F0D0FBFEE700BF62
:104FD0007C24040808B5024839F0C8FBFEE700BF8E
:104FE000C424040888F1002058350220704700BF0F
:104FF00070B590E84C00C4681C1BA6EB02060D4679
:1050000011D1002E07DB6FF000434B6005D16FF02C
:105010000040286070BD0A4B4B603146204609F0C5
:10502000E5FF286070BD2146304609F0DFFF68606B
:10503000002EF2D1002CEADA0148286070BD00BFD2
:105040000100008010B5174C6268E3682068A16811
:1050500002EBD27203EBD37300EB620201EB63034A
:10506000D4E9041000042260A36009F0B9FF0346EC
:10507000A06921696360000409F0B2FFD4E900234C
:1050800003EBD371A2EB61021344E361A368E06018
:1050900000EBD071A3EB610318442260A36020628F
:1050A00010BD00BF141E0120064BD3E9011010B43F
:1050B000DA681C68C3E90B12C3E909405DF8044BC8
:1050C000704700BF141E012070B5144C144DD4E974
:1050D0000B122B686160E2609BB9D4E9093002448D
:1050E000A0606069236000040B442262E36109F060
:1050F0007DFF01464FF48030696009F077FF206141
:1051000070BD636B1E68F36801EBD170A3EB6003A5
:10511000306902EBD276A0EB6600E0E7141E0120B6
:10512000040000200F4B996BDA6830B50E4D5C68B7
:10513000481C85FB005E02EBD27CC217C2EBAE02BC
:1051400002EB8202A0EB420003EBC1011D689863F1
:105150009B6804EBD47405EB640503EB6C03CD632F
:105160000B6430BD141E0120676666662DE9F843A6
:105170003A4B3B4C1A683B496FF00040002AC4E9A7
:105180002300C4E9251165DD374B1B68002703EBBD
:10519000C20CBE46B9460E46B846054606E08A42EF
:1051A00001DD1146012708339C4510D01A6895424D
:1051B0003DDC964202DA16464FF001095A688242F7
:1051C000EDDA08339C4510464FF0010EEED197B34F
:1051D000C4F89410BEF1000F31D0C4F88C00B9F1BE
:1051E000000F31D0C4F898600B1AB8F1000F2DD021
:1051F000C4F89050711B6069C4F89C30000409F039
:10520000F5FE0546A069D4F89C10000409F0EEFEF6
:10521000A3698542A8BF05464FF400111804C4F8DD
:10522000A05009F0E3FEC4F8A400BDE8F8831546D9
:105230004FF00108C2E70B49BEF1000FCDD16FF06E
:105240000040B9F1000FCDD1064ECDE706F1004187
:105250000131D0E702231946CDE700BFD8D40120A1
:10526000141E012001000080C0D401201E4BD3E990
:105270002A1251EA020070B506D01C4800240460CE
:105280006FF00040C3F8B000D3E900049D68D3F884
:105290009860014404EBD4702A4401EB6005B542E8
:1052A00019609A604FEA60001ADCD3F89060B5424A
:1052B00016DBD868D3F8945000EBD07C02EB6C0E70
:1052C000AE454FEA6C0C03DCD3F88C50AE4502DAE5
:1052D000A5EB0C029A6021441044C3E9071070BD8D
:1052E000311A1960E5E700BF141E012004000020F8
:1052F0002C4970B52C4C096860690125C4E92E5110
:105300006FF0004100234FF48032C4F8B010000465
:105310002169C4E93222C4E93033C4E92A3309F0EF
:105320005FFE0346A06921696360000409F058FE2E
:105330001E4B1F4A1968E06052F82130054603B33E
:105340001C4B4FF48E7202FB01336363196866686D
:10535000CB6806EBD672A3EB62020B69226005EB09
:10536000D572A3EB6203A360FFF780FF236863623B
:10537000A3682563C4E90A360F48BDE870401EF0F3
:10538000F1BB0C49616352F8040B20B90133042BC3
:10539000F9D1084BDAE74FF48E7202FB0313636313
:1053A000D4E700BF44820120141E0120ACB40120C8
:1053B00014BC0120B0B401200C00002070B50A4DCF
:1053C0000A4E84B0002423463246092101A838F051
:1053D000AFFB012101A822F0DBFC01340A2C45F8C7
:1053E000040BF0D104B070BDE41E0120D8240408E1
:1053F00030B5084D85B0002423462A46092101A86E
:1054000038F096FB013401A822F002FD0A2CF3D1FA
:1054100005B030BDD82404080648002300F13C0143
:105420004FF0FF3241F8332001330A2BFAD1002329
:1054300083637047141E012010B5164C0023C4E985
:105440003E334FF4A071A822C4E9051204F13C01D7
:105450004FF0FF3241F8332001330A2BFAD10023F9
:10546000A363FFF783FE4BF23331D4F8A00009F0B9
:10547000BDFDD4F8A420084B904201465860C4BF3B
:10548000D4F8A01059604FF4803009F0AFFD2061CE
:1054900010BD00BF141E01200400002030B50E4DC9
:1054A00085B0002423462A46092101A838F040FB94
:1054B000013401A822F0ACFC0A2CF3D1074C084BB4
:1054C000002204F11C00C3F8B8201EF04BFB01239E
:1054D000236305B030BD00BFD824040804000020B9
:1054E000141E0120F0B5214E346B85B044B301ADDC
:1054F0001F4C726B23681F4F00219A42316303D106
:10550000B26B3B689A4205D0FFF796FF22683B6872
:10551000C6E90D23FFF7ECFE174E184F0024234673
:105520003A460921284638F003FB0121284622F09B
:105530002FFC01340A2C46F8040BF0D105B0F0BD65
:105540000E4F01AD23463A460921284638F0F0FABD
:105550000134284622F05CFC0A2CF3D1084B0948A0
:105560000022C3F8B8201EF0FDFAC1E704000020B5
:1055700064BC012024BC0120E41E0120D8240408BE
:10558000141E01202000002010B5074C074BD4F852
:10559000A01059604FF4803009F028FD2061BDE86B
:1055A0001040FFF74FBD00BF141E01200400002073
:1055B00010B5074C074BD4F8A41059604FF4803055
:1055C00009F014FD2061BDE81040FFF73BBD00BFAE
:1055D000141E012004000020F0B59D4E0578D6F879
:1055E000B83087B004463BB925B99A4B42681B686E
:1055F0009A427DD0002065E0002D3BD1964A436859
:1056000012689A4256D0954A12689A4276D0944AC5
:1056100012689A4200F09580924A12689A427AD0B3
:10562000914A12689A4200F0A880904A12689A4201
:1056300000F0A980874A12689A4200F0C7808C4A1D
:1056400012689A4200F0A5808A4A12689A4200F0D5
:10565000DA80894A12689A4200F0EB80874A126821
:105660009A4200F03581864A12689A4200F0208101
:10567000002523E0012DBDD1774A436812689A4284
:1056800057D0764A12689A4253D0754A12689A42A5
:105690006BD0744A12689A4267D0734A12689A4271
:1056A00003D0724A12689A42A4D14FF48033C6E9FB
:1056B00032339FE7734B1B68002B4ED0724B1B6835
:1056C00013B1284607B0F0BD217A704808F04CFFAE
:1056D0000028F6D0D6F81C216D4B013283FB021353
:1056E000A3EBE27303EB4303D21AC6F81C2181E754
:1056F000FFF7F8FE674B01201D60E3E7614B1B6875
:10570000002BDBD131694FF4802009F069FC404265
:10571000C6F8A8000BE05B4B1B68002BCED13169AB
:105720004FF4802009F05CFC4042C6F8AC00012533
:10573000C4E7544B1B68002B7FF45CAFC6F8A8305D
:1057400058E7504B1B68002BB8D131694FF48020CB
:1057500009F046FCC6F8AC00E9E731694FF4802057
:1057600009F03EFCC6F8A800E1E7464B1B68002B99
:105770007FF440AFC6F8AC303CE7474B4FF6FA2217
:10578000C6E93232D3E7444A4FF6FA23C6E9323249
:10579000CDE7D6F80031002B0CBF01230023C6F85B
:1057A000003143D132687262B268364BB2627268BD
:1057B000D6F8A010F2624FF48030F268326359607C
:1057C00009F014FC3061FFF73DFCB0E7314B334F7B
:1057D000C6F8005101221A602B463A46092103A857
:1057E00038F0A6F9013503A822F012FB0A2DF3D1F7
:1057F000244D002305F11C00C6F8B8301EF0B2F9A4
:1058000001232B6393E71F4B1A686FF00041002AB6
:10581000C6F8B01008BF0122716B18BF00221A60D1
:105820000CBF1F4B1F4BC1F8DC3080E7FFF74CFC6F
:105830007DE7D6F80421736B002A0CBF01220022F9
:10584000C6F804210CBF184A184AC3F8DC206EE7DA
:10585000141E0120B0BB0020A0BB0020A4BB002070
:1058600098BB00209CBB0020ACBB0020A8BB002044
:10587000B4BB0020B8BB0020BCBB0020C0BB0020D4
:10588000C4BB00200400002050BC012040000020C8
:105890005655555558BC01201E050100D824040852
:1058A000E4240408F4240408042504080C2504084E
:1058B0000F4900234FF0FF3241F8332001330A2B08
:1058C000FAD1736B0B4A0021B163C3F8DC202EE7D9
:1058D000094DB26B0092094B094A142128460BF07E
:1058E000FFFB736BC3F8DC50FFF71CFC1FE700BF26
:1058F000501E01202C2504081C1F01201825040817
:105900002425040838B5124C124DD4F8CC10686820
:1059100009F066FB01464FF48030696009F066FBD0
:105920006B68D4F8A01020618B4203DBD4F8A4107C
:105930008B4209DD4FF48030696009F057FB20612C
:10594000BDE83840FFF77EBBBDE83840FFF77ABBC3
:10595000141E01200400002070B51C4C636BD4F8A9
:10596000B0201B68D868824204D1D4F8B4201B69E7
:105970009A422AD0164E174D716809F031FB216901
:10598000284009F02DFB6368716803EBD373A0EB2B
:105990006300636B20601B68186909F021FB2169B3
:1059A000284009F01DFBD4E900210A44616BE3683B
:1059B0000968E261D1E9031203EBD375A0EB65003E
:1059C000C4E92C120344A060236270BD141E0120A0
:1059D000040000200000FFFF124AD2F8C010D2F8E5
:1059E000203199421DDDD2F82401431C082B10B44C
:1059F000C2F824310C4C04BF0023C2F824310B4BF5
:105A000054F82000C2F8C40083FB0103A3EBE17348
:105A100003EB43035B0006335DF8044BC2F820310F
:105A200070477047141E012094280508ABAAAA2AC3
:105A300010B5144CD4F8B830A3B1134AD4F8C03020
:105A400012680133C4F8C030A2B9D4F8C830B3F535
:105A5000803F08D1D4E92A32134303D0BDE8104077
:105A6000FFF704BC10BDFFF74DFFD4E92A32134302
:105A7000F8D0F3E7FFF770FFD4F8C830B3F5803FF4
:105A8000E8D0F0E7141E012004000020064B10B4FB
:105A9000D3E90524014604FB02F2D3F8BC005DF80B
:105AA000044B30F019B900BF141E01202DE9F84F46
:105AB000AA4F05463A6A406890420C46E96813DDF1
:105AC0008A420EDBBB688B42D4BF002301239B00BC
:105AD000082128683A68AE6890421CDAB24240F366
